:100000000C9464000C948C000C948C000C948C0068
:100010000C948C000C948C000C948C000C94FD07B8
:100020000C948C000C948C000C948C000C948C0020
:100030000C948C000C948C000C948C000C948C0010
:100040000C94B3070C948C000C947F080C94590802
:100050000C948C000C948C000C948C000C948C00F0
:100060000C948C000C948C000000000024002700ED
:100070002A000000000023002600290000000008DC
:10008000000201000003040700000000000000005F
:10009000010204081020408001020408102001021F
:1000A0000408102000000000250028002B00040494
:1000B0000404040404040202020202020303030310
:1000C00003030200B108E01111241FBECFEFD8E0F6
:1000D000DEBFCDBF15E0A0E0B1E0EAE4FEE202C081
:1000E00005900D92AC37B107D9F726E0ACE7B5E043
:1000F00001C01D92AC38B207E1F710E0C3E6D0E0D2
:1001000004C02197FE010E940915C236D107C9F724
:100110000E940D090C9418170C940000833081F094
:1001200028F4813099F08230A9F008958730A9F041
:100130008830C9F08430B1F4809180008F7D03C095
:10014000809180008F7780938000089584B58F77A9
:1001500084BD089584B58F7DFBCF8091B0008F77EB
:100160008093B00008958091B0008F7DF9CFCF9338
:10017000DF93282F30E0F901E458FF4F8491F90113
:10018000E057FF4FD491F901E255FF4FC491CC23C2
:10019000A1F081110E948E00EC2FF0E0EE0FFF1F06
:1001A000EE58FF4FA591B491EC91ED2381E090E0E2
:1001B00009F480E0DF91CF91089580E090E0FACFDC
:1001C0001F93CF93DF93282F30E0F901E458FF4FBE
:1001D0008491F901E057FF4FD491F901E255FF4FA7
:1001E000C491CC23A9F0162F81110E948E00EC2F10
:1001F000F0E0EE0FFF1FEC55FF4FA591B4918FB7C4
:10020000F894EC91111108C0D095DE23DC938FBFD8
:10021000DF91CF911F910895DE2BF8CFCF93DF931D
:1002200090E0FC01E057FF4F249182559F4FFC0165
:1002300084918823C9F090E0880F991FFC01E85948
:10024000FF4FA591B491FC01EC55FF4FC591D4919E
:1002500061110DC09FB7F8948C91209582238C93E7
:100260008881282328839FBFDF91CF910895623032
:1002700051F49FB7F8943C91822F809583238C93FF
:10028000E8812E2BEFCF8FB7F894EC912E2B2C9387
:100290008FBFEACF4F925F926F927F928F929F9221
:1002A000AF92BF92CF92DF92EF92FF920F931F9384
:1002B000CF938C016A017B0180910101823199F019
:1002C0008F3F09F45CC0CF911F910F91FF90EF9089
:1002D000DF90CF90BF90AF909F908F907F906F9066
:1002E0005F904F900895E2ECF0E0C491C7FDEBCF32
:1002F00061E082E10E940E012801712C612CCC2367
:10030000F1F0980150E040E0C23009F0A7C02801A8
:100310003A0160E970ED83E090E00E9458134901D2
:100320005A0181E0881A9108A108B10893E08FEF83
:1003300088169104A104B10409F00CF4DDC068E44E
:1003400078EE81E090E0A30192010E9458134901E8
:100350005A0181E0881A9108A108B10894E0C111FE
:10036000CBC085B5887F836085BD2FEF3FEFA901A6
:10037000C114D104E104F10409F4D2C08DC082E1BA
:1003800080930101E2ECF0E0C491CF3F09F49BCFF0
:10039000C13021F150F0C23009F43EC0C7FD93CF07
:1003A00061E082E10E940E01ACCF14BC15BC84B5A3
:1003B000826084BD85B5816085BDE0ECF0E0E491AC
:1003C000F0E0EE0FFF1FEC55FF4F85919491E2EAAC
:1003D000F0E0E491E093B405C0E08ACF1092800091
:1003E00010928100809181008860809381008091CB
:1003F0008100816080938100E0ECF0E0E491F0E026
:10040000EE0FFF1FEC55FF4F85919491E2EAF0E06B
:10041000E491E093B3056CCF1092B0001092B1005C
:100420008091B00082608093B0008091B1008160C3
:100430008093B100E0ECF0E0E491F0E0EE0FFF1FFC
:10044000EC55FF4F859194919093B2058093B1053F
:10045000E2EAF0E0E491E093B0054ACF60E072E1B7
:100460008AE790E00E94581349015A0181E0881AF6
:100470009108A108B108C13009F044C08091810001
:10048000887F8160809381002FEF3FEFA901C11425
:10049000D104E104F10471F0D801AA0FBB1FA70138
:1004A00096010E94771328EE33E040E050E00E946E
:1004B000B91330C090928900809288002093B905CA
:1004C0003093BA054093BB055093BC0580916F00F3
:1004D000826080936F00F7CE8092B3002093B505C1
:1004E0003093B6054093B7055093B80580917000DE
:1004F000826080937000E7CE8091B100887F892B65
:100500008093B1002FEF3FEFA901C114D104E104A2
:10051000F10411F6C13071F2C230F1F2C111D3CE43
:1005200087BC2093BD053093BE054093BF05509313
:10053000C00580916E00826080936E00C4CE3FB78C
:10054000F8948091AC059091AD05A091AE05B09165
:10055000AF0526B5A89B05C02F3F19F00196A11D38
:10056000B11D3FBFBA2FA92F982F8827BC01CD01FD
:10057000620F711D811D911D42E0660F771F881F5C
:10058000991F4A95D1F708952FB7F8946091A8055F
:100590007091A9058091AA059091AB052FBF089590
:1005A0009091010189130BC0E2ECF0E0E4919FEF20
:1005B00090930101E13049F028F0E23061F060E011
:1005C0000C94E00010926E00FACF90916F009D7F26
:1005D00090936F00F4CF909170009D7F9093700086
:1005E00091E09093B0009091B100987F94609093C7
:1005F000B1001092B300E3CFAF92BF92CF92DF92DF
:10060000EF92FF920F931F93CF93DF936C017B01C7
:100610008B01040F151FEB015E01AE18BF08C01758
:10062000D10759F06991D601ED91FC910190F081CB
:10063000E02DC6010995892B79F7C501DF91CF918E
:100640001F910F91FF90EF90DF90CF90BF90AF90F0
:100650000895FC01448155816081718181EC95E0B0
:100660000C94FC02FC01538D448D252F30E0842F27
:1006700090E0821B930B541710F0CF9608950197CA
:100680000895FC01918D828D981761F0A28DAE0FB7
:10069000BF2FB11D5D968C91928D9F5F9F73928F3E
:1006A00090E008958FEF9FEF0895FC01918D828D6A
:1006B000981731F0828DE80FF11D858D90E0089537
:1006C0008FEF9FEF0895FC01918D228D892F90E08F
:1006D000805C9F4F821B91098F739927089581EC4D
:1006E00095E00E94630321E0892B09F420E0822F2A
:1006F000089580E090E0892B29F00E946F0381111A
:100700000C9400000895FC01A48DA80FB92FB11D11
:10071000A35ABF4F2C91848D90E001968F73992737
:10072000848FA689B7892C93A089B1898C91837015
:1007300080648C93938D848D981306C00288F3890E
:10074000E02D80818F7D80830895EF92FF920F933B
:100750001F93CF93DF93EC0181E0888F9B8D8C8D6D
:1007600098131AC0E889F989808185FF15C09FB761
:10077000F894EE89FF896083E889F9898081837024
:10078000806480839FBF81E090E0DF91CF911F91D3
:100790000F91FF90EF900895F62E0B8D10E00F5FF4
:1007A0001F4F0F731127E02E8C8D8E110CC00FB6CA
:1007B00007FCFACFE889F989808185FFF5CFCE0162
:1007C0000E948303F1CFEB8DEC0FFD2FF11DE35A57
:1007D000FF4FF0829FB7F8940B8FEA89FB898081E5
:1007E0008062CFCFCF93DF93EC01888D8823B9F05F
:1007F000AA89BB89E889F9898C9185FD03C080812C
:1008000086FD0DC00FB607FCF7CF8C9185FFF2CFA8
:10081000808185FFEDCFCE010E948303E9CFDF9178
:10082000CF910895089590E080E008956091940537
:10083000709195056F3071050CF44BC0CB010F978B
:10084000849708F5072E000C880B990B0E9438122C
:1008500020E030E040E751E40E94EA1320E030E07D
:100860004AEF54EC0E94971220E030E04CE052E452
:100870000E94571420E030E44CE955E40E94EB1349
:100880000E94C9140895CB01C3978897E8F4072EF6
:10089000000C880B990B0E94381220E030E048E4ED
:1008A00052E40E94EA1320E030E84BEB54EC0E9443
:1008B000971220E030E040E252E40E94571420E01A
:1008C00030E84BE355E4DACF60E070E88BEB94E47A
:1008D000D7CF60E070E0CB01089580E480937C0086
:1008E00080917A00806480937A0080917A0086FDFE
:1008F000FCCFA0917800B091790024E630E00E940E
:1009000002152FEF33E040E050E00E945813C90178
:100910002536310514F084E690E097FF02C090E0A0
:1009200080E00895CF93DF93EC0160E08E810E9418
:10093000E00061E08E810E94E00060E08E810E9414
:10094000E0008BE891E00197F1F7DF91CF910895F6
:10095000CF92DF92EF92FF920F931F93CF93DF938B
:100960006C017C0187E0E80EF11CD0E0C0E0062FAE
:1009700010E0B8010C2E02C0759567950A94E2F755
:100980006170F70181917F010E94E0002196C430DF
:10099000D10579F7C601DF91CF911F910F91FF909B
:1009A000EF90DF90CF900C949204CF92DF92EF9271
:1009B000FF920F931F93CF93DF93EC01F62E642FDA
:1009C0008C810E94E0008D818F3F19F060E00E94D1
:1009D000E0000F2D10E08F8584FF25C06E0187E0B9
:1009E000C80ED11CF12CE12CB8010E2C02C075955B
:1009F00067950A94E2F76170F60181916F010E9498
:100A0000E000FFEFEF1AFF0A88E0E816F10461F753
:100A1000CE01DF91CF911F910F91FF90EF90DF906A
:100A2000CF900C949204B80184E0759567958A95EF
:100A3000E1F7CE010E94A8046F2DCE01DF91CF9186
:100A40001F910F91FF90EF90DF90CF900C94A8042E
:100A500040E0682F80E796E00C94D50481E00E9486
:100A600028058BE39FE10197F1F70895CF93DF937A
:100A7000823029F490917F06986090937F0680934E
:100A800083061092840680E48093850680E180933B
:100A9000860680E58093870661E0809174060E9457
:100AA0000E01809175068F3F19F061E00E940E01E2
:100AB00061E0809176060E940E01C0E7D6E09E01BB
:100AC0002057364080917F0684FD0BC084E090E083
:100AD00021962817390744F461E08E810E940E01A7
:100AE000EECF88E090E0F4CF8BE39DE00197F1F743
:100AF00060E0809174060E94E00060E080917606DC
:100B00000E94E000809175068F3F19F060E00E941E
:100B1000E00080917F0684FD34C063E080E796E0CA
:100B20000E94A804CBE4D6E4CE010197F1F763E07C
:100B300080E796E00E94A8042197F1F763E080E740
:100B400096E00E94A80483E592E00197F1F762E045
:100B500080E796E00E94A80480917F0680620E9450
:100B6000280584E0809380068CE00E9428050E947E
:100B70002E0582E08093810686E0DF91CF910C9470
:100B8000280580620E9428058BE496E40197F1F71E
:100B900080917F0680620E94280583E592E001979C
:100BA000F1F780917F0680620E942805D5CF909151
:100BB0008306891710F08FEF890FE82FF0E0E059D6
:100BC000F94F848980680C94280541E00E94D5047F
:100BD00081E090E0089561E089E00E940E0160E00C
:100BE00089E00E94E00060E08AE00E94E00060E0AE
:100BF0008DE00C94E000FC0180819181009711F060
:100C00000C94AB150895FB0101900020E9F7319792
:100C1000AF01461B570BDC01ED91FC910280F38183
:100C2000E02D09948F929F92AF92BF92EF92FF9224
:100C30000F931F93CF93DF93CDB7DEB7A1970FB676
:100C4000F894DEBF0FBECDBF7C01FA01CB0119A223
:100C5000223008F42AE08E010F5D1F4F822E912C66
:100C6000B12CA12CBF01A50194010E94B913F90177
:100C7000CA016A300CF5605DD8016E938D01232B9B
:100C8000242B252B79F790E080E0109721F0BD010F
:100C9000C7010E940306A1960FB6F894DEBF0FBEEF
:100CA000CDBFDF91CF911F910F91FF90EF90BF903B
:100CB000AF909F908F900895695CDECFCF92DF92C6
:100CC000EF92FF920F931F93CF93DF93EC016A0192
:100CD0007B01E881F9810190F081E02D6DE20995B9
:100CE0008C0144275527BA014C195D096E097F090B
:100CF0002AE0CE010E941206800F911FDF91CF9152
:100D00001F910F91FF90EF90DF90CF900895AB016E
:100D1000770F660B770B77FD0C945E062AE00C9438
:100D20001206CF93DF93BC0181EC95E00E94870609
:100D3000EC0166E271E081EC95E00E9403068C0F05
:100D40009D1FDF91CF910895CF93DF93BC0181EC7C
:100D500095E00E940306EC0166E271E081EC95E00B
:100D60000E9403068C0F9D1FDF91CF9108950C9474
:100D70000306FB0144815581FC0124813581241740
:100D8000350778F080819181009759F0FB016081EF
:100D900071816115710529F00E940A1721E0892BE4
:100DA00009F020E0822F0895FC0124813581232B56
:100DB00039F421E0FB018081882349F020E007C05D
:100DC000808191810E94FA1621E0892BB9F7822F48
:100DD00008950F931F93CF93DF93EC01888199813E
:100DE000009759F02A813B812617370730F081E0C0
:100DF000DF91CF911F910F9108958B016F5F7F4F0E
:100E00000E943416009759F0998388831B830A83C4
:100E10002C813D81232B59F7FC011082E8CF80E023
:100E2000E7CFEF92FF920F931F93CF93DF93EC01E5
:100E30007B018A01BA010E94E9062881398181116A
:100E400014C02115310519F0C9010E94AB15198292
:100E500018821D821C821B821A82CE01DF91CF91E3
:100E60001F910F91FF90EF9008951D830C83B701A0
:100E7000C9010E940317F1CFFB0101900020E9F79F
:100E80003197AF01461B570B0C941107FC011182DF
:100E900010821382128215821482FB0101900020BD
:100EA000E9F73197AF01461B570B0C941107AF922E
:100EB000BF92CF92DF92EF92FF920F931F93CF9347
:100EC000DF93EC017B01DB011496CD90DC908AE08E
:100ED000A82EB12CBAE0CB16D10420F456019AE02A
:100EE000C92ED12C68E271E0CE010E944607F701BD
:100EF00004811581A016B106E8F4C016D10608F4E5
:100F00008601D701ED91FC911197E00FF11FD08080
:100F100010826D917C916A0D7B1D61157105B1F098
:100F2000CE010E943C07F70180819181080F191FB3
:100F3000D801DC92CE01DF91CF911F910F91FF90EC
:100F4000EF90DF90CF90BF90AF9008958881998106
:100F5000009711F00E94AB15198218821D821C8225
:100F60001B821A82E0CF1F920F920FB60F921124AC
:100F70002F933F938F939F93AF93BF938091A80537
:100F80009091A905A091AA05B091AB053091A70554
:100F900023E0230F2D3758F50196A11DB11D209395
:100FA000A7058093A8059093A905A093AA05B093DF
:100FB000AB058091AC059091AD05A091AE05B091C7
:100FC000AF050196A11DB11D8093AC059093AD05B1
:100FD000A093AE05B093AF05BF91AF919F918F9154
:100FE0003F912F910F900FBE0F901F90189526E8FC
:100FF000230F0296A11DB11DD2CF1F920F920FB6E3
:101000000F9211242F933F934F935F936F937F938E
:101010008F939F93AF93BF93EF93FF938091B50509
:101020009091B605A091B705B091B805892B8A2B90
:101030008B2BD1F19091B005E091B105F091B20503
:101040008081892780838091B5059091B605A09114
:10105000B705B091B805181619061A061B069CF4B8
:101060008091B5059091B605A091B705B091B805EE
:101070000197A109B1098093B5059093B605A09396
:10108000B705B093B805FF91EF91BF91AF919F91D4
:101090008F917F916F915F914F913F912F910F9021
:1010A0000FBE0F901F901895809101010E94D002F1
:1010B000EACF1F920F920FB60F9211242F933F93F6
:1010C0004F935F936F937F938F939F93AF93BF9350
:1010D000EF93FF9381EC95E00E948303FF91EF91E2
:1010E000BF91AF919F918F917F916F915F914F9140
:1010F0003F912F910F900FBE0F901F9018951F9248
:101100000F920FB60F9211242F938F939F93EF930B
:10111000FF93E091D105F091D2058081E091D70550
:10112000F091D80582FD1BC090818091DA058F5F18
:101130008F732091DB05821741F0E091DA05F0E032
:10114000EF53FA4F958F8093DA05FF91EF919F91BE
:101150008F912F910F900FBE0F901F901895808147
:10116000F4CFE1ECF5E01382128288EE93E0A0E088
:10117000B0E084839583A683B7838CE091E091836C
:10118000808385EC90E09587848784EC90E0978756
:10119000868780EC90E0918B808B81EC90E0938B44
:1011A000828B82EC90E0958B848B86EC90E0978B21
:1011B000868B118E128E138E148EE0E7F6E013826A
:1011C00012828EE191E0918380838CE084838FEFA3
:1011D00085838BE0868385E0878384E0808783E056
:1011E000818782E082871386148615861686178685
:1011F00081E00E94360569E372E08AE696E00E948B
:10120000460769E271E084E696E00E94460768E2DC
:1012100071E08EE596E00C944607CF93DF93CDB74F
:10122000DEB72C970FB6F894DEBF0FBECDBF789413
:1012300084B5826084BD84B5816084BD85B58260DB
:1012400085BD85B5816085BD80916E00816080938C
:101250006E001092810080918100826080938100F5
:101260008091810081608093810080918000816005
:10127000809380008091B10084608093B100809160
:10128000B00081608093B00080917A008460809388
:101290007A0080917A00826080937A0080917A004F
:1012A000816080937A0080917A00806880937A00D0
:1012B0001092C100E091D105F091D20582E08083C7
:1012C000E091CD05F091CE051082E091CF05F0912F
:1012D000D0058FEC80831092D905E091D505F0916F
:1012E000D60586E08083E091D305F091D405808116
:1012F00080618083E091D305F091D405808188607E
:101300008083E091D305F091D4058081806880834B
:10131000E091D305F091D40580818F7D808384E1B5
:1013200090E0A0E0B0E08093C5059093C605A0933F
:10133000C705B093C80582E00E9436050E942E05BD
:1013400060E08EE00E940E0161E08FE00E940E01DD
:1013500061E080E10E940E0161E081E10E940E01E6
:1013600061E082E10E940E0162E083E10E940E01D1
:1013700062E087E00E940E0161E089E00E940E01B8
:1013800061E08AE00E940E0161E08DE00E940E01A2
:101390000E94EB0560E08FE00E94E00060E080E1E9
:1013A0000E94E00061E081E10E94E00082E10E9491
:1013B000D0020E946D0490939905809398059093B4
:1013C00097058093960590939505809394052FEF4C
:1013D00030E0DC010E94021524E630E040E050E0FD
:1013E0000E9458133093A3052093A20569E372E08D
:1013F0008AE696E00E943C0763E371E084E696E0AB
:101400000E943C0780E00E94D70568E471E080E715
:1014100096E00E94B70681E00E94D70567E571E07B
:1014200080E796E00E94B7060E949F024B015C0194
:101430009CEDC92E95E0D92EE12CF12C0E949F0243
:10144000681979098A099B09683E734081059105ED
:10145000A8F321E0C21AD108E108F10848EE840E91
:1014600043E0941EA11CB11CC114D104E104F10499
:1014700029F70E942E0586E691E00E94A40684E6E4
:10148000482E512C612C712C222423943324339424
:1014900081EC95E00E946303181619060CF0BAC29D
:1014A00081EC95E00E9441038A3009F08CC2C09023
:1014B0005E06D0905F06C114D10441F0009162062F
:1014C00010916306760101151105B9F518861F8282
:1014D0001A8619861C861B8660915E0670915F06CF
:1014E0006115710541F04091620650916306CE018D
:1014F00007960E9411078B859C85892B09F4E3C010
:1015000064E771E0CE0107960E94D406882309F4AF
:1015100050C010928105109280050E94C402609311
:101520008E0570938F0580939005909391058AE7BF
:1015300091E00E94A406C7C0750157018FEFA81A59
:10154000B80AF7018081082E000C990B0E9428121E
:10155000892B91F7015011090C0D1D1DF801808197
:10156000082E000C990B0E942812892B31F00E15C1
:101570001F0518F001501109F1CFA8014F5F5F4F0F
:101580004E195F095093630640936206CE14DF0440
:1015900020F4B701C6010E94F116E0915E06F091B9
:1015A0005F068091620690916306E80FF91F108232
:1015B0008DCF68E673E0CE0107960E94D4068111B4
:1015C00008C06FEC71E0CE0107960E94D406882314
:1015D00029F03092A60588E991E0ABCF66EB71E087
:1015E000CE0107960E94D406811178C069EC71E0A3
:1015F000CE0107960E94D406811170C069ED71E09A
:10160000CE0107960E94D406882309F477C00E9471
:101610006D04909399058093980590939505809318
:1016200094059093970580939605909393058093E6
:10163000920569E372E08AE696E00E943C0763E364
:1016400071E084E696E00E943C070E94C402609329
:101650008E0570938F05809390059093910563E5B7
:1016600072E081EC95E00E94B70664E772E081ECDD
:1016700095E00E94B706609194057091950581EC04
:1016800095E00E9487066FE772E081EC95E00E948A
:10169000B706A0919405B09195052FEF30E00E9418
:1016A0000215A30192010E945813BA01A90177FF04
:1016B00083C081EC95E00E945E0666E271E081ECF9
:1016C00095E00E940306CE0107960E94FB0568E2A2
:1016D00071E08EE596E00E943C07DACE83E10E943D
:1016E000B700019741F41092A60582E10E94D00252
:1016F00083EE91E01ECF81E092E01BCF67E272E0C3
:10170000CE0107960E94D406811181CF61E372E079
:10171000CE0107960E94D406811179CF67E472E06A
:10172000CE0107960E94D406882309F44BC067E9CE
:1017300072E08AE696E00E943C076EE972E084E679
:1017400096E00E943C0780919405909195059093B6
:101750009305809392050E946D0490939905809360
:10176000980590939705809396050E94C402609314
:101770008A0570938B0580938C0590938D050E944C
:10178000C40260938E0570938F05809390059093AB
:10179000910564EB72E081EC95E00E94B70664E786
:1017A00072E081EC95E00E94B706809192059091DD
:1017B00093050E94910687CF2AE081EC95E00E9474
:1017C00012067BCF6BE872E0CE0107960E94D4062A
:1017D0008111ADCF64E772E0CE0101960E94460709
:1017E000BE016F5F7F4FCE0107960E94B906182F8A
:1017F000CE0101960E94FB05111115C06AEE72E040
:10180000CE0101960E944607BE016F5F7F4FCE0159
:1018100007960E94B906182FCE0101960E94FB057B
:10182000112309F47CC0BE01695F7F4FCE01019690
:101830000E94570789819A81C12CD12C760100978B
:1018400019F00E94EC116B01CE0101960E94FB057C
:10185000D601A536B10514F0A4E6B0E0B7FF02C08A
:10186000B0E0A0E0B0939305A0939205B0939505E6
:10187000A09394052FEF30E00E940215A30192017E
:101880000E9458133093A3052093A20567E972E0E4
:101890008AE696E00E943C076EE972E084E696E0F4
:1018A0000E943C070E946D049093990580939805CF
:1018B00090939705809396050E94C40260938A05D1
:1018C00070938B0580938C0590938D050E94C402C4
:1018D00060938E0570938F0580939005909391058A
:1018E0006EEC72E081EC95E00E94B70664E772E06E
:1018F00081EC95E00E94B706609194057091950582
:1019000081EC95E00E9487066FE772E081EC95E03C
:101910000E94B7068091A2059091A3054ACF65EF7A
:1019200072E0CE0107960E94D40681113BC06EEF93
:1019300072E0CE0107960E94D406811133C064E0A4
:1019400073E0CE0107960E94D406811119C067E2A8
:1019500073E0CE0107960E94D406811111C06DE29A
:1019600073E0CE0107960E94D406811109C06CE392
:1019700073E0CE0107960E94D406882309F4A3CE13
:101980001092A5051092A40510928205109283056D
:10199000109284051092850582E10E94D00286E4AF
:1019A00093E0C7CD3092A5051092A4050E94C40211
:1019B00060938205709383058093840590938505D9
:1019C0008DE093E0B6CD8D3009F462CD89831A8223
:1019D00000916206109163060F5F1F4FB8018EE5FC
:1019E00096E00E94E906882309F452CD20915E0614
:1019F00030915F068091620690916306BE016F5F31
:101A00007F4F820F931F0E9403171093630600936A
:101A100062063ECD83E10E94B700892B11F430921B
:101A2000A6058091A605882309F4B8C00E94EB059D
:101A300060E08FE00E94E00060E080E10E94E00052
:101A400061E081E10E94E00040E050E0BA0188EEF0
:101A500093E00E944A0180E00E94D70563E673E0AC
:101A600080E796E00E94B70681E00E94D70563E711
:101A700073E080E796E00E94B7060E94C4020091DE
:101A80009A0510919B0520919C0530919D05601B46
:101A9000710B820B930B643F71408105910508F433
:101AA00070C00E94C40260939A0570939B05809356
:101AB0009C0590939D0563E873E081EC95E00E949E
:101AC000B7066FE873E081EC95E00E94B7066CE919
:101AD00073E081EC95E00E94B706609180057091FB
:101AE000810581EC95E00E94870664EA73E081EC51
:101AF00095E00E94B70666EB73E081EC95E00E94EA
:101B0000B70687E00E94B70061E070E0892B11F012
:101B100070E060E081EC95E00E94870665EC73E080
:101B200081EC95E00E94B7066091A50570E081EC1C
:101B300095E00E94870665ED73E081EC95E00E94D8
:101B4000B706609198057091990581EC95E00E9427
:101B5000870665EE73E081EC95E00E94B7068AE6A1
:101B600096E00E9429036FEE73E081EC95E00E94FD
:101B7000B70684E696E00E94290387EF93E00E946F
:101B8000A40680E090E0892B09F482CC0E946F03C8
:101B9000882309F479CC0E94000076CC0E946D0461
:101BA000909399058093980520919605309197051B
:101BB000AC01421B530B9A0157FF03C0319521958D
:101BC000310922303105C4F1909395058093940535
:101BD0009093930580939205909397058093960533
:101BE00069E372E08AE696E00E943C070E94C40224
:101BF0000E94C40260938E0570938F0580939005B8
:101C0000909391050E94C40200918A0510918B0562
:101C100020918C0530918D05601B710B820B930B0D
:101C2000613273408105910508F0ACC06AE074E050
:101C300084E696E00E943C07A0919405B09195053A
:101C4000A536B10514F0A4E6B0E0B7FF02C0B0E0DD
:101C5000A0E0B0939505A09394052FEF30E00E948B
:101C60000215A30192010E9458133093A3052093FB
:101C7000A20587E00E94B70001E0009709F400E0A8
:101C8000892BC9F5809100018823A9F11091A50540
:101C90000E94C402C0908605D0908705E090880518
:101CA000F09089056C197D098E099F09693C7105C1
:101CB0008105910500F112251093A5050E94C4022B
:101CC00060938605709387058093880590938905B6
:101CD000112309F45AC00E94C402609382057093D4
:101CE000830580938405909385051092A40585E271
:101CF00094E00E94A406009300018091A50588232A
:101D000009F436C30E94C402009182051091830534
:101D10002091840530918505601B710B820B930B1C
:101D2000603D77408105910510F03092A4050E9436
:101D3000EB058091A505811109C08091A405811151
:101D400005C08091A605882309F473C00E94C402CF
:101D500060938E0570938F05809390059093910505
:101D60008091A605882309F4B0C060E08FE00E944E
:101D7000E00060E080E10E94E00061E081E10E941B
:101D8000E000D9C063E371E053CF1092A405109234
:101D9000820510928305109284051092850582E1D8
:101DA0000E94D00285E494E0A4CFE5E8F0E08491BD
:101DB000833029F150F48130C1F08230D9F00038FD
:101DC00011050CF0F8C260E0F7C2873011F18830DD
:101DD00041F18430A1F7809180008062809380007F
:101DE00010938B0000938A00A4CF84B5806884BDD3
:101DF00007BD9FCF84B5806284BD08BD9ACF809116
:101E00008000806880938000109389000093880090
:101E100090CF8091B00080688093B0000093B300B1
:101E200088CF8091B00080628093B0000093B400AE
:101E300080CF0E9416046B017C01C114D104E1041F
:101E4000F10409F483CF0E94C40200918E05109121
:101E50008F052091900530919105601B710B820BCD
:101E6000930B6C157D058E059F0508F479CF809145
:101E7000800590918105019690938105809380055E
:101E80000E94C40260938E0570938F058093900525
:101E90009093910548E750E060E070E080EB94E0BB
:101EA0000E944A0168E674E081EC95E00E94B70662
:101EB0006DE973E081EC95E00E94B70680918005A2
:101EC000909181050E9491064BCF8091A4058823B3
:101ED00009F4DBC160E08FE00E94E00061E080E196
:101EE0000E94E00061E081E10E94E0000E94C402E3
:101EF00000917C0510917D0520917E0530917F0534
:101F0000601B710B820B930B6C3B7240810591053A
:101F100090F00E94C40260937C0570937D058093CD
:101F20007E0590937F0546E950E060E070E084E82C
:101F300093E00E944A010E94C40200919E05109104
:101F40009F052091A0053091A105601B710B820BAC
:101F5000930B6C3271408105910508F4EDC00E942D
:101F6000C40260939E0570939F058093A005909393
:101F7000A10580E00E94D7056DE774E080E796E058
:101F80000E94B7068091940590919505843691053D
:101F900034F461E873E080E796E00E94B706809130
:101FA0009405909195050A9734F461E873E080E711
:101FB00096E00E94B706609194057091950580E7C0
:101FC00096E00E94870662E874E080E796E00E944F
:101FD000B70665E874E080E796E00E94B706809156
:101FE0008005909181058436910534F46DE873E0A5
:101FF00080E796E00E94B706809180059091810568
:102000000A9734F46DE873E080E796E00E94B70623
:10201000609180057091810580E796E00E948706B7
:102020008091800590918105883E934034F461E869
:1020300073E080E796E00E94B70681E00E94D70532
:102040008091A40568E874E0811172C08091A505B3
:1020500068E974E081116CC06AE074E084E696E09F
:102060000E94D40668EA74E0811162C067E972E0F8
:102070008AE696E00E94D40668EB74E0811158C0AD
:1020800069E372E08AE696E00E94D40668EC74E0A8
:1020900081114EC0809194059091950568ED74E092
:1020A0000F970CF445C00E9416040E94361220E0DF
:1020B00030E04AE754E40E9457146B017C0168EE5B
:1020C00074E080E796E00E94B706A7019601C70179
:1020D000B6010E94FD146BEE74E0811123C02FEF56
:1020E0003FEF4FE75FE7C701B6010E94FD14811182
:1020F0000CC02FEF3FEF4FE75FE7C701B6010E942B
:1021000031126FEE74E018166CF02FEF3FEF4FE7CF
:102110005FE4C701B6010E94F81418160CF0D3C092
:1021200063EF74E080E796E00E94030667EF74E0D7
:1021300080E796E00E94B7060E94C40200919A05CB
:1021400010919B0520919C0530919D05601B710BA2
:10215000820B930B643F71408105910508F411CD0A
:102160000E94C40260939A0570939B0580939C051E
:1021700090939D050E9416046B017C0164E772E058
:1021800081EC95E00E94B7066091940570919505E9
:1021900081EC95E00E9487066FE772E081EC95E0A4
:1021A0000E94B7066091A2057091A30581EC95E0AD
:1021B0000E9487066CE973E081EC95E00E94B70607
:1021C000609180057091810581EC95E00E94870601
:1021D00063E075E081EC95E00E94B7062AE0B70164
:1021E000A60181EC95E00E94120666EB73E081EC9B
:1021F00095E00E94B70687E00E94B70061E070E0BA
:10220000892B11F070E060E081EC95E00E94870678
:1022100065EC73E081EC95E00E94B7066091A5053E
:1022200070E081EC95E00E94870665ED73E081EC3B
:1022300095E00E94B706609198057091990581EC30
:1022400095E00E94870665EE73E081EC95E00E94C0
:10225000B7068AE696E00E9429036FEE73E081ECF0
:1022600095E00E94B70684E696E00E94290364E1A7
:1022700075E081EC95E00E94B7068091A405882363
:1022800009F463C082E295E07ACC8091A50560E014
:10229000811114C080919405909195058F3091051E
:1022A0000CF463CD61E082974CF48FE00E94E00073
:1022B00060E080E10E94E00060E060CD8FE00E947D
:1022C000E00061E0F6CF2FEF3FEF4FE75FECC70193
:1022D000B6010E94311287FD23CF2DEC3CEC4CE47B
:1022E0005DE3C701B6010E94EB134B015C010E9444
:1022F000C9146B017C010E9436129B01AC01C5011F
:10230000B4010E94EA134B015C012AE0B701A60167
:1023100080E796E00E94120641E06EE280E796E0D8
:102320000E94D50420E030E040E251E4C501B40150
:102330000E9497120E94C914AB0170E060E02AE08D
:1023400080E796E00E941206F1CE8091A5058823D1
:1023500019F089E395E013CC80919405909195054F
:102360000F971CF481E595E00ACC88E695E007CC50
:102370008091A4058111DBCC0091A2051091A305E9
:10238000063011050CF4D3CC8091940590919505FD
:102390000F970CF4CCCC61E08AE00E94E00060E092
:1023A0008DE00E94E00061E089E00E940E010F3F95
:1023B000110509F0FACC61E089E00E94E000B9CC97
:1023C0008EE596E00E94FB0584E696E00E94FB0500
:1023D0008AE696E00C94FB051F93FC019927882759
:1023E000BC01E89411911032E9F3193010F01E305D
:1023F000C8F31B3251F01D3249F4689406C00E94A4
:102400001312610F711D811D911D119110531A300E
:10241000B0F33EF490958095709561957F4F8F4F06
:102420009F4F1F910895592F482F372F262F660F42
:10243000771F881F991F660F771F881F991F620FCC
:10244000731F841F951F660F771F881F991F08959C
:1024500091110C940413803219F089508550C8F7FB
:1024600008950E94731208F481E00895E89409C069
:1024700097FB3EF490958095709561957F4F8F4FB7
:102480009F4F9923A9F0F92F96E9BB279395F695CD
:10249000879577956795B795F111F8CFFAF4BB0F4B
:1024A00011F460FF1BC06F5F7F4F8F4F9F4F16C0AF
:1024B000882311F096E911C0772321F09EE8872F39
:1024C000762F05C0662371F096E8862F70E060E0F5
:1024D0002AF09A95660F771F881FDAF7880F96956E
:1024E000879597F90895990F0008550FAA0BE0E812
:1024F000FEEF16161706E807F907C0F012161306C6
:10250000E407F50798F0621B730B840B950B39F405
:102510000A2661F0232B242B252B21F408950A266B
:1025200009F4A140A6958FEF811D811D08950E9499
:10253000AA120C941E130E94101338F00E94171355
:1025400020F0952311F00C9407130C940D13112413
:102550000C9452130E942F1370F3959FC1F3950FA3
:1025600050E0551F629FF001729FBB27F00DB11D17
:10257000639FAA27F00DB11DAA1F649F6627B00DA7
:10258000A11D661F829F2227B00DA11D621F739F90
:10259000B00DA11D621F839FA00D611D221F749F9E
:1025A0003327A00D611D231F849F600D211D822FE5
:1025B000762F6A2F11249F5750409AF0F1F088230C
:1025C0004AF0EE0FFF1FBB1F661F771F881F915039
:1025D0005040A9F79E3F510580F00C9407130C94CE
:1025E00052135F3FE4F3983ED4F386957795679551
:1025F000B795F795E7959F5FC1F7FE2B880F911D63
:102600009695879597F9089599278827089597F9BA
:102610009F6780E870E060E008959FEF80EC089588
:1026200000240A94161617061806090608950024B1
:102630000A9412161306140605060895092E03942B
:10264000000C11F4882352F0BB0F40F4BF2B11F49F
:1026500060FF04C06F5F7F4F8F4F9F4F089557FDFE
:102660009058440F551F59F05F3F71F04795880F00
:1026700097FB991F61F09F3F79F087950895121697
:1026800013061406551FF2CF4695F1DF08C0161643
:1026900017061806991FF1CF8695710561050894F4
:1026A0000895E894BB2766277727CB0197F908950B
:1026B000052E97FB1EF400940E946F1357FD07D060
:1026C0000E94B91307FC03D04EF40C946F1350957D
:1026D0004095309521953F4F4F4F5F4F089590950E
:1026E0008095709561957F4F8F4F9F4F08950E9401
:1026F000DB13A59F900DB49F900DA49F800D911D9D
:10270000112408952F923F924F925F926F927F9281
:102710008F929F92AF92BF92CF92DF92EF92FF92F1
:102720000F931F93CF93DF93CDB7DEB7CA1BDB0B9D
:102730000FB6F894DEBF0FBECDBF09942A88398842
:1027400048885F846E847D848C849B84AA84B98449
:10275000C884DF80EE80FD800C811B81AA81B98155
:10276000CE0FD11D0FB6F894DEBF0FBECDBFED0169
:102770000895A1E21A2EAA1BBB1BFD010DC0AA1FC2
:10278000BB1FEE1FFF1FA217B307E407F50720F0DA
:10279000A21BB30BE40BF50B661F771F881F991F55
:1027A0001A9469F760957095809590959B01AC019E
:1027B000BD01CF010895A29FB001B39FC001A39FA7
:1027C000700D811D1124911DB29F700D811D11246A
:1027D000911D08955058BB27AA270E9402140C94FB
:1027E0001E130E94101338F00E94171320F039F4C2
:1027F0009F3F19F426F40C940D130EF4E095E7FBBB
:102800000C940713E92F0E942F1358F3BA1762078D
:1028100073078407950720F079F4A6F50C945113FB
:102820000EF4E0950B2EBA2FA02D0B01B9019001EB
:102830000C01CA01A0011124FF27591B99F0593F2F
:1028400050F4503E68F11A16F040A22F232F342F77
:102850004427585FF3CF469537952795A795F040C5
:102860005395C9F77EF41F16BA0B620B730B840BDA
:10287000BAF09150A1F0FF0FBB1F661F771F881F92
:10288000C2F70EC0BA0F621F731F841F48F48795EA
:1028900077956795B795F7959E3F08F0B0CF9395DC
:1028A000880F08F09927EE0F9795879508950E9455
:1028B0006B140C941E130E94171358F00E941013EF
:1028C00040F029F45F3F29F00C94071351110C9448
:1028D00052130C940D130E942F1368F39923B1F334
:1028E000552391F3951B550BBB27AA276217730736
:1028F000840738F09F5F5F4F220F331F441FAA1FCA
:10290000A9F335D00E2E3AF0E0E832D09150504085
:10291000E695001CCAF72BD0FE2F29D0660F771F33
:10292000881FBB1F261737074807AB07B0E809F019
:10293000BB0B802DBF01FF2793585F4F3AF09E3F9E
:10294000510578F00C9407130C9452135F3FE4F395
:10295000983ED4F3869577956795B795F7959F5FE1
:10296000C9F7880F911D9695879597F90895E1E02D
:10297000660F771F881FBB1F621773078407BA078C
:1029800020F0621B730B840BBA0BEE1F88F7E095E7
:1029900008950E94371388F09F5798F0B92F992710
:1029A000B751B0F0E1F0660F771F881F991F1AF03A
:1029B000BA95C9F714C0B13091F00E945113B1E03B
:1029C00008950C945113672F782F8827B85F39F03A
:1029D000B93FCCF3869577956795B395D9F73EF4D3
:1029E00090958095709561957F4F8F4F9F4F08957B
:1029F0000E94731208F48FEF08950E947312880BDF
:102A0000990B08950E94DB13B7FF0895821B930B67
:102A10000895EE0FFF1F0590F491E02D09940F9398
:102A20001F93CF93DF938230910510F482E090E002
:102A3000E0918A06F0918B0630E020E0B0E0A0E063
:102A4000309799F42115310509F44AC0281B390B38
:102A500024303105D8F58A819B816115710589F192
:102A6000FB0193838283FE0111C040815181028169
:102A7000138148175907E0F04817590799F4109740
:102A800061F012960C93129713961C933296CF0115
:102A9000DF91CF911F910F91089500938A061093B3
:102AA0008B06F4CF2115310551F04217530738F04A
:102AB000A901DB019A01BD01DF01F801C1CFEF01DE
:102AC000F9CF90938B0680938A06CDCFFE01E20F5B
:102AD000F31F819391932250310939832883D7CFF3
:102AE0002091880630918906232B41F4209104011E
:102AF00030910501309389062093880620910201C8
:102B0000309103012115310541F42DB73EB74091B5
:102B1000060150910701241B350BE0918806F091C6
:102B20008906E217F307A0F42E1B3F0B281739077D
:102B300078F0AC014E5F5F4F2417350748F04E0F19
:102B40005F1F5093890640938806819391939FCF8E
:102B5000F0E0E0E09CCFCF93DF930097E9F0FC0139
:102B6000329713821282A0918A06B0918B06ED01F2
:102B700030E020E01097A1F420813181820F931F73
:102B800020918806309189062817390709F061C01D
:102B9000F0938906E0938806DF91CF910895EA01CA
:102BA000CE17DF07E8F54A815B819E01411551058B
:102BB000B1F7E901FB83EA8349915991C40FD51F0D
:102BC000EC17FD0761F4808191810296840F951FB7
:102BD000E90199838883828193819B838A83F0E0D2
:102BE000E0E012968D919C9113970097B9F52D9185
:102BF0003C911197CD010296820F931F2091880678
:102C0000309189062817390739F6309751F5109217
:102C10008B0610928A06B0938906A0938806BCCFD3
:102C2000D383C28340815181840F951FC817D90770
:102C300061F44E5F5F4F88819981480F591F51831E
:102C400040838A819B81938382832115310509F01A
:102C5000B0CFF0938B06E0938A069ECFFD01DC0196
:102C6000C0CF13821282D7CFB0E0A0E0EAE3F6E152
:102C70000C9484138C01009751F4CB010E940F1522
:102C80008C01C801CDB7DEB7E0E10C94A013FC01C4
:102C9000E60FF71F9C0122503109E217F30708F4F1
:102CA0009DC0D901CD91DC911197C617D70798F037
:102CB000C530D10530F3CE0104978617970708F386
:102CC000C61BD70B2297C193D1936D937C93CF01F1
:102CD0000E94AB15D6CF5B01AC1ABD0A4C018C0E1D
:102CE0009D1EA0918A06B0918B06512C412CF12C8F
:102CF000E12C109731F5809188069091890688150E
:102D0000990509F05CC04616570608F058C0809136
:102D1000020190910301009741F48DB79EB7409155
:102D2000060150910701841B950BE817F90708F07D
:102D300055C0F0938906E0938806F901718360839A
:102D4000A0CF8D919C91119712966C90129713962B
:102D50007C901397A815B90559F56C0142E0C40E93
:102D6000D11CCA14DB0420F1AC014A195B09DA0159
:102D70001296159780F06282738251834083D90145
:102D80006D937C93E114F10471F0D7011396FC93D9
:102D9000EE93129776CF22968C0F9D1FF9019183A7
:102DA0008083F301EFCFF0938B06E0938A0669CF1F
:102DB0004816590608F42C017D01D3019ACFCB01A6
:102DC0000E940F157C01009749F0AE01B8010E94E6
:102DD000F116C8010E94AB15870153CF10E000E047
:102DE00050CFFB01DC0102C001900D9241505040D8
:102DF000D8F70895FB01DC018D9101908019011035
:102E0000D9F3990B0895FB01DC0101900D9200208C
:102E1000E1F70895FB01DC014150504030F08D9105
:102E20000190801919F40020B9F7881B990B0895B7
:102E300010E0C3E6D0E004C0FE010E94091521960F
:0A2E4000C436D107C9F7F894FFCF9C
:102E4A0001FF00008C06800000000000A503FC02C0
:102E5A003203F20363034103550300000000E50552
:102E6A00FC02130412040D0A0053494E5F415649ED
:102E7A00534F00504F54454E43494F4D4554524FBE
:102E8A005F41435449564F0043696E746120417251
:102E9A006475696E6F200053697374656D61206C87
:102EAA006973746F200053495354454D415F4C492F
:102EBA0053544F00524553455400524553505545BB
:102ECA005354413D434F4E5441444F525F5245493A
:102EDA004E49434941444F00524553505545535476
:102EEA00413D454D455247454E4349415F41435453
:102EFA004956414441004C494D504941525F454D64
:102F0A00455247454E43494100434C4541525F456E
:102F1A004D455247454E4359004D4F444F3D41554B
:102F2A00544F005245535055455354413D454D4524
:102F3A005247454E4349415F4C494D5049414441EE
:102F4A00005245535055455354413D424F544F4EFC
:102F5A005F454D455247454E4349415F505245539F
:102F6A00494F4E41444F004D4F44453D4155544F02
:102F7A0000434F4E54524F4C3D504F54454E4349D7
:102F8A004F4D4554524F004D4F444F3D4D414E55C4
:102F9A00414C005245535055455354413D434F4EC1
:102FAA0054524F4C5F504F54454E43494F4D455430
:102FBA00524F3B0056454C4F43494441443D003B28
:102FCA0050574D5F4D4F544F523D004D4F44453D74
:102FDA004D414E55414C004F50454E474C00434FD2
:102FEA004E54524F4C5F4F50454E474C5F414354ED
:102FFA0049564F005245535055455354413D434F4E
:10300A004E54524F4C5F4F50454E474C3B00524531
:10301A00535055455354413D56454C4F43494441FD
:10302A00445F4F50454E474C3B005345545F535005
:10303A004545443D0041544153434F3D31004A41C7
:10304A004D3D310041544153434F3D3000524553A9
:10305A005055455354413D41544153434F5F4143B9
:10306A0054495641444F004A414D3D30004C494D68
:10307A00504941525F41544153434F00434C4541EB
:10308A00525F4A414D005245535055455354413DB4
:10309A0041544153434F5F44455341435449564178
:1030AA00444F005041524F20454D455247454E43EB
:1030BA004941004D4F544F524553204F4646202018
:1030CA0020200056454C4F43494441443D30003B83
:1030DA0050574D5F4D4F544F523D30003B43414A8C
:1030EA0041533D003B5449454D504F5F43414A418E
:1030FA005F4D533D30003B424F544F4E5F41544168
:10310A0053434F3D003B41544153434F5F41435466
:10311A0049564F3D003B504F54454E43494F4D454C
:10312A0054524F3D003B434F4E54524F4C3D003B8F
:10313A00415649534F3D003B45535441444F3D4549
:10314A004D455247454E43494100434F4E54524F15
:10315A004C5F46495349434F5F5052494F52495475
:10316A004152494F004556454E544F3D41544153F3
:10317A00434F5F53494D554C41444F5F4143544976
:10318A005641444F004556454E544F3D41544153D4
:10319A00434F5F53494D554C41444F5F444553415A
:1031AA004354495641444F004556454E544F3D43BA
:1031BA00414A415F434F4E544144413B0056656C7E
:1031CA003A00252000433A00504F5349424C4520CB
:1031DA0041544153434F200041544153434F2041EE
:1031EA00435449564F202000436F6E74726F6C200F
:1031FA0046495349434F2000436F6E74726F6C20E7
:10320A004F50454E474C20004374726C20504F5427
:10321A00454E432E2020200056656C2062616A616B
:10322A002F65737065726100543A006E616E0069B1
:10323A006E66006F7666007320782063616A61208B
:10324A002020003B5449454D504F5F43414A415F5E
:10325A004D533D003B4D4F444F3D4849425249442E
:10326A004F003B45535441444F3D504F5349424C04
:10327A00455F41544153434F003B45535441444FEA
:10328A003D41544153434F5F53494D554C41444F7F
:10329A00003B45535441444F3D42414A415F5645E4
:1032AA004C4F4349444144003B45535441444F3DEC
:0C32BA0046554E43494F4E414E444F00D4
:00000001FF
