:020000040000FA
:100000000C9463000C948B000C948B000C948B006C
:100010000C948B000C948B000C948B000C94380681
:100020000C948B000C948B000C948B000C948B0024
:100030000C948B000C948B000C948B000C948B0014
:100040000C94EE050C948B000C94E0060C94BA060C
:100050000C948B000C948B000C948B000C948B00F4
:100060000C948B000C948B000000000023002600F1
:10007000290000000000240027002A0000000008DA
:10008000000201000003040700000000000000005F
:10009000010204081020408001020408102001021F
:1000A0000408102000000000250028002B00040494
:1000B0000404040404040202020202020303030310
:1000C00003030200570711241FBECFEFD8E0DEBFA5
:1000D000CDBF11E0A0E0B1E0E6E8FCE102C0059090
:1000E0000D92A03EB107D9F722E0A0EEB1E001C029
:1000F0001D92A73CB207E1F710E0C3E6D0E004C0D0
:100100002197FE010E943B0EC236D107C9F70E941B
:10011000A1070C94410E0C940000833081F028F468
:10012000813099F08230A9F008958730A9F08830A5
:10013000C9F08430B1F4809180008F7D03C080913C
:1001400080008F7780938000089584B58F7784BD79
:10015000089584B58F7DFBCF8091B0008F77809319
:10016000B00008958091B0008F7DF9CF1F93CF9399
:10017000DF93282F30E0F901E458FF4F8491F90113
:10018000E057FF4FD491F901E255FF4FC491CC23C2
:10019000A9F0162F81110E948D00EC2FF0E0EE0FD8
:1001A000FF1FEC55FF4FA591B4918FB7F894EC91D8
:1001B000111108C0D095DE23DC938FBFDF91CF9162
:1001C0001F910895DE2BF8CFCF93DF9390E0FC01D1
:1001D000E057FF4F249182559F4FFC018491882363
:1001E000C9F090E0880F991FFC01EE58FF4FA591D0
:1001F000B491FC01EC55FF4FC591D49161110DC034
:100200009FB7F8948C91209582238C938881282322
:1002100028839FBFDF91CF910895623051F49FB73B
:10022000F8943C91822F809583238C93E8812E2B28
:10023000EFCF8FB7F894EC912E2B2C938FBFEACF92
:100240008F929F92AF92BF92CF92DF92EF92FF92E6
:100250000F931F93CF938C016A017B018091000162
:10026000823179F08F3F09F442C0CF911F910F91F5
:10027000FF90EF90DF90CF90BF90AF909F908F90C6
:100280000895E2ECF0E0C491C7FDEFCF61E082E1B8
:100290000E94E400C11141C0980150E040E068E4D0
:1002A00078EE81E090E00E94080C49015A0181E05B
:1002B000881A9108A108B10885B5887F836085BD3B
:1002C0002FEF3FEFA901C114D104E104F10409F4B7
:1002D000EFC0D801AA0FBB1FA70196010E94270CEF
:1002E00028EE33E040E050E00E94320CDAC082E1B8
:1002F00080930001E2ECF0E0C491CF3F09F4B5CF68
:10030000C13009F455C0D8F1C23009F46FC0C7FD3F
:10031000ACCF61E082E10E94E400980150E040E04F
:10032000C23009F085C060E970ED83E090E00E9482
:10033000080C49015A0181E0881A9108A108B10806
:100340008091B100887F83608093B1002FEF3FEFF1
:10035000A901C114D104E104F10409F0BACF8092DB
:10036000B300209306023093070240930802509393
:1003700009028091700082608093700076CF14BC77
:1003800015BC84B5826084BD85B5816085BDE0EC17
:10039000F0E0E491F0E0EE0FFF1FEC55FF4F859188
:1003A0009491E2EAF0E0E491E0930502C0E06ECFC0
:1003B000109280001092810080918100886080936B
:1003C000810080918100816080938100E0ECF0E009
:1003D000E491F0E0EE0FFF1FEC55FF4F85919491F3
:1003E000E2EAF0E0E491E093040250CF1092B00012
:1003F0001092B1008091B00082608093B000809133
:10040000B10081608093B100E0ECF0E0E491F0E0B5
:10041000EE0FFF1FEC55FF4F8591949190930302CF
:1004200080930202E2EAF0E0E491E09301022ECF31
:1004300060E072E18AE790E00E94080C49015A01ED
:1004400081E0881A9108A108B108C13009F58091AE
:100450008100887F8160809381002FEF3FEFA901A9
:10046000C114D104E104F10409F033CF9092890062
:100470008092880020930A0230930B0240930C0272
:1004800050930D0280916F00826080936F00EDCEDB
:100490002FEF3FEFA901C114D104E104F10409F0E9
:1004A00018CFC13019F3C23009F459CFC111DDCED4
:1004B00087BC20930E0230930F024093100250939A
:1004C000110280916E00826080936E00CECE3FB7A5
:1004D000F8948091FD019091FE01A091FF01B091EF
:1004E000000226B5A89B05C02F3F19F00196A11D5B
:1004F000B11D3FBFBA2FA92F982F8827BC01CD016E
:10050000620F711D811D911D42E0660F771F881FCC
:10051000991F4A95D1F708958F929F92AF92BF92FB
:10052000CF92DF92EF92FF924B015C010E94670233
:100530006B017C010E9467026C197D098E099F097D
:10054000683E734081059105A8F321E0821A910865
:10055000A108B10888EEC80E83E0D81EE11CF11C8A
:1005600081149104A104B10429F7FF90EF90DF906A
:10057000CF90BF90AF909F908F9008952FB7F89431
:100580006091F9017091FA018091FB019091FC0159
:100590002FBF0895AF92BF92CF92DF92EF92FF925A
:1005A0000F931F93CF93DF936C017B018B01040F9B
:1005B000151FEB015E01AE18BF08C017D10759F037
:1005C0006991D601ED91FC910190F081E02DC60179
:1005D0000995892B79F7C501DF91CF911F910F9173
:1005E000FF90EF90DF90CF90BF90AF900895FC0107
:1005F000538D448D252F30E0842F90E0821B930B88
:10060000541710F0CF96089501970895FC01918D2D
:10061000828D981761F0A28DAE0FBF2FB11D5D9630
:100620008C91928D9F5F9F73928F90E008958FEFD2
:100630009FEF0895FC01918D828D981731F0828D86
:10064000E80FF11D858D90E008958FEF9FEF0895DD
:10065000FC01918D228D892F90E0805C9F4F821B41
:1006600091098F739927089582E192E00E942803EF
:1006700021E0892B09F420E0822F089580E090E0AA
:10068000892B29F00E94340381110C9400000895F5
:10069000FC01A48DA80FB92FB11DA35ABF4F2C91F7
:1006A000848D90E001968F739927848FA689B789EE
:1006B0002C93A089B1898C91837080648C93938DE5
:1006C000848D981306C00288F389E02D80818F7D88
:1006D00080830895EF92FF920F931F93CF93DF9340
:1006E000EC0181E0888F9B8D8C8D98131AC0E8896E
:1006F000F989808185FF15C09FB7F894EE89FF893D
:100700006083E889F98980818370806480839FBFDA
:1007100081E090E0DF91CF911F910F91FF90EF90DA
:100720000895F62E0B8D10E00F5F1F4F0F731127EA
:10073000E02E8C8D8E110CC00FB607FCFACFE88925
:10074000F989808185FFF5CFCE010E944803F1CF62
:10075000EB8DEC0FFD2FF11DE35AFF4FF0829FB799
:10076000F8940B8FEA89FB8980818062CFCFCF9389
:10077000DF93EC01888D8823B9F0AA89BB89E889C9
:10078000F9898C9185FD03C0808186FD0DC00FB66F
:1007900007FCF7CF8C9185FFF2CF808185FFEDCFED
:1007A000CE010E944803E9CFDF91CF9108950895CB
:1007B00090E080E00895CF93DF93EC0160E08E81BC
:1007C0000E94B60061E08E810E94B60060E08E81DA
:1007D0000E94B6008BE891E00197F1F7DF91CF918D
:1007E0000895CF92DF92EF92FF920F931F93CF93D2
:1007F000DF936C017C0187E0E80EF11CD0E0C0E0E3
:10080000062F10E0B8010C2E02C0759567950A946A
:10081000E2F76170F70181917F010E94B600219695
:10082000C430D10579F7C601DF91CF911F910F91A7
:10083000FF90EF90DF90CF900C94DB03CF92DF928C
:10084000EF92FF920F931F93CF93DF93EC01F62E5D
:10085000642F8C810E94B6008D818F3F19F060E07B
:100860000E94B6000F2D10E08F8584FF25C06E0119
:1008700087E0C80ED11CF12CE12CB8010E2C02C06F
:10088000759567950A94E2F76170F60181916F01A1
:100890000E94B600FFEFEF1AFF0A88E0E816F104A5
:1008A00061F7CE01DF91CF911F910F91FF90EF90F3
:1008B000DF90CF900C94DB03B80184E075956795C9
:1008C0008A95E1F7CE010E94F1036F2DCE01DF91F1
:1008D000CF911F910F91FF90EF90DF90CF900C94EC
:1008E000F10340E0682F8FEA92E00C941E0481E04F
:1008F0000E9471048BE39FE10197F1F70895CF9374
:10090000DF93823029F49091BE0298609093BE02EA
:100910008093C2021092C30280E48093C40280E1FB
:100920008093C50280E58093C60261E08091B302A6
:100930000E94E4008091B4028F3F19F061E00E94B0
:10094000E40061E08091B5020E94E400CFEAD2E0C9
:100950009E012F5A32408091BE0284FD0BC084E07C
:1009600090E021962817390744F461E08E810E94B7
:10097000E400EECF88E090E0F4CF8BE39DE00197B8
:10098000F1F760E08091B3020E94B60060E08091D0
:10099000B5020E94B6008091B4028F3F19F060E06A
:1009A0000E94B6008091BE0284FD34C063E08FEAED
:1009B00092E00E94F103CBE4D6E4CE010197F1F777
:1009C00063E08FEA92E00E94F1032197F1F763E080
:1009D0008FEA92E00E94F10383E592E00197F1F73C
:1009E00062E08FEA92E00E94F1038091BE02806291
:1009F0000E94710484E08093BF028CE00E94710425
:100A00000E94770482E08093C00286E0DF91CF915C
:100A10000C94710480620E9471048BE496E4019747
:100A2000F1F78091BE0280620E94710483E592E03A
:100A30000197F1F78091BE0280620E947104D5CFC8
:100A40009091C202891710F08FEF890FE82FF0E024
:100A5000E155FD4F848980680C94710441E00E9447
:100A60001E0481E090E0089561E089E00E94E400C6
:100A700060E089E00E94B60060E08AE00E94B60073
:100A800060E08DE00C94B600FB0101900020E9F7D6
:100A90003197AF01461B570BDC01ED91FC910280B1
:100AA000F381E02D09948F929F92AF92BF92EF92C3
:100AB000FF920F931F93CF93DF93CDB7DEB7A1972C
:100AC0000FB6F894DEBF0FBECDBF7C01FA01CB019B
:100AD00019A2223008F42AE08E010F5D1F4F822EEA
:100AE000912CB12CA12CBF01A50194010E94320CC4
:100AF000F901CA016A300CF5605DD8016E938D0171
:100B0000232B242B252B79F790E080E0109721F000
:100B1000BD01C7010E944405A1960FB6F894DEBF3F
:100B20000FBECDBFDF91CF911F910F91FF90EF903E
:100B3000BF90AF909F908F900895695CDECFCF9269
:100B4000DF92EF92FF920F931F93CF93DF936B018E
:100B5000770FEE08FF08F7FE1FC0EC01E881F9816E
:100B60000190F081E02D6DE209958C014427552715
:100B7000BA014C195D096E097F092AE0CE010E9475
:100B80005305800F911FDF91CF911F910F91FF901F
:100B9000EF90DF90CF9008952AE0B701A601DF9192
:100BA000CF911F910F91FF90EF90DF90CF900C9419
:100BB0005305CF93DF93BC0182E192E00E9444058C
:100BC000EC016FE171E082E192E00E9444058C0F3C
:100BD0009D1FDF91CF9108950C9444051F920F92B1
:100BE0000FB60F9211242F933F938F939F93AF9340
:100BF000BF938091F9019091FA01A091FB01B0910E
:100C0000FC013091F80123E0230F2D3758F50196B0
:100C1000A11DB11D2093F8018093F9019093FA0171
:100C2000A093FB01B093FC018091FD019091FE0126
:100C3000A091FF01B09100020196A11DB11D80930A
:100C4000FD019093FE01A093FF01B0930002BF91BC
:100C5000AF919F918F913F912F910F900FBE0F9069
:100C60001F90189526E8230F0296A11DB11DD2CF23
:100C70001F920F920FB60F9211242F933F934F9311
:100C80005F936F937F938F939F93AF93BF93EF93F4
:100C9000FF938091060290910702A0910802B09103
:100CA0000902892B8A2B8B2BD1F190910102E091C3
:100CB0000202F091030280818927808380910602DD
:100CC00090910702A0910802B09109021816190626
:100CD0001A061B069CF48091060290910702A091CF
:100CE0000802B09109020197A109B1098093060297
:100CF00090930702A0930802B0930902FF91EF912D
:100D0000BF91AF919F918F917F916F915F914F9123
:100D10003F912F910F900FBE0F901F9018958091CB
:100D20000001E2ECF0E0E4919FEF90930001E130EC
:100D300051F030F0E23069F060E00E94B600DECFA2
:100D400010926E00F9CF90916F009D7F90936F008D
:100D5000F3CF909170009D7F9093700091E09093FD
:100D6000B0009091B100987F94609093B100109280
:100D7000B300E2CF1F920F920FB60F9211242F9360
:100D80003F934F935F936F937F938F939F93AF9313
:100D9000BF93EF93FF9382E192E00E944803FF919B
:100DA000EF91BF91AF919F918F917F916F915F91E3
:100DB0004F913F912F910F900FBE0F901F9018955C
:100DC0001F920F920FB60F9211242F938F939F9320
:100DD000EF93FF93E0912202F09123028081E09152
:100DE0002802F091290282FD1BC0908180912B0284
:100DF0008F5F8F7320912C02821741F0E0912B02BC
:100E0000F0E0EE5EFD4F958F80932B02FF91EF9106
:100E10009F918F912F910F900FBE0F901F9018955B
:100E20008081F4CFCF92DF92EF92FF920F931F93C6
:100E3000E82FF92F05C0015011092109310961F18D
:100E4000908196239417B9F305C001501109210927
:100E5000310911F1908196239413F7CFC12CD12C35
:100E6000E12CF12C0AC08FEFC81AD80AE80AF80A58
:100E70000C151D052E053F0579F08081862384170A
:100E800091F36C2D7D2D8E2D9F2D1F910F91FF9035
:100E9000EF90DF90CF90089560E070E080E090E008
:100EA0001F910F91FF90EF90DF90CF900895E2E1B6
:100EB000F2E01382128288EE93E0A0E0B0E0848337
:100EC0009583A683B78385E091E09183808385EC49
:100ED00090E09587848784EC90E09787868780EC04
:100EE00090E0918B808B81EC90E0938B828B82ECF5
:100EF00090E0958B848B86EC90E0978B868B118E9F
:100F0000128E138E148EEFEAF2E01382128287E1C2
:100F100091E0918380838CE084838FEF85838BE0E5
:100F2000868385E0878384E0808783E0818782E011
:100F300082871386148615861686178681E00C94A0
:100F40007F04789484B5826084BD84B5816084BD5B
:100F500085B5826085BD85B5816085BD80916E0057
:100F6000816080936E001092810080918100826088
:100F700080938100809181008160809381008091C5
:100F800080008160809380008091B10084608093B4
:100F9000B1008091B00081608093B00080917A00B0
:100FA000846080937A0080917A00826080937A00D6
:100FB00080917A00816080937A0080917A008068C5
:100FC00080937A001092C100E0912202F0912302F6
:100FD00082E08083E0911E02F0911F021082E09176
:100FE0002002F09121028FEC808310922A02E0917E
:100FF0002602F091270286E08083E0912402F0919E
:101000002502808180618083E0912402F091250295
:10101000808188608083E0912402F09125028081A4
:1010200080688083E0912402F091250280818F7D89
:10103000808382E00E947F040E94770460E08EE05B
:101040000E94E40061E08FE00E94E40061E080E142
:101050000E94E40061E081E10E94E40061E082E13D
:101060000E94E40062E083E10E94E40061E086E027
:101070000E94E40060E087E00E94E40061E089E013
:101080000E94E40061E08AE00E94E40061E08DE0FB
:101090000E94E4000E94340560E08FE00E94B600E8
:1010A00060E080E10E94B60061E081E10E94B6004C
:1010B00080E00E94200562E271E08FEA92E00E94E7
:1010C000EC0581E00E94200560E371E08FEA92E088
:1010D0000E94EC056CED75E080E090E00E948C02CF
:1010E0000E9477048EE391E00E94D905812C912C17
:1010F00054018A9443E0642E712CEFE8F0E084916F
:10110000E3EAF0E0C491E1ECF0E0D491D11146C003
:10111000F1E0F093F7018091F701882309F44EC0C4
:101120000E94340560E08FE00E94B60060E080E13C
:101130000E94B60061E081E10E94B60040E050E00C
:10114000BA0188EE93E00E94200180E00E94200511
:101150006CE471E08FEA92E00E94EC0581E00E946D
:1011600020056CE571E08FEA92E00E94EC058CE6C8
:1011700091E00E94D9056CE271E080E090E00E946D
:101180008C0280E090E0892B09F4B7CF0E943403F1
:10119000882309F4B2CF0E940000AFCF81110E94D2
:1011A0008D00ED2FF0E0EE0FFF1FE859FF4FA591E6
:1011B000B4918C91C82309F4ABCFADCF80E4809378
:1011C0007C0080917A00806480937A0080917A001C
:1011D00086FDFCCFA0917800B09179002FEF30E030
:1011E0000E94340E2FEF33E040E050E00E94080CE4
:1011F0006901E9013093F6012093F501A4E6B0E01E
:101200000E94270CA50194010E94080C3093F40160
:101210002093F301C630D1050CF00CC20E943405B6
:101220008091F3019091F40160E0181619062CF4F6
:1012300061E0823291050CF054C28FE00E94B6004A
:1012400060E080E10E94B60060E081E10E94B600AB
:1012500060E086E00E94B600C3010197F1F761E00B
:1012600086E00E94B60083E290E00197F1F760E02B
:1012700086E00E94B600E7E9F0E06491E5EBF0E07B
:101280008491E82FF0E0EE0FFF1FE859FF4F8591A2
:10129000949100E315E720E030E0462F0E9412070A
:1012A000611571058105910509F42CC26F5F7F4FAF
:1012B0008F4F9F4F9F70611571058105910509F44E
:1012C00021C20E940D0D28E23EE74CE05DE30E9442
:1012D000C20D20E030E040E05FE30E94C20D6B01F0
:1012E0007C01C092EF01D092F001E092F101F09206
:1012F000F20120E030E0A901C701B6010E94BD0D56
:1013000018166CF420E030E040EA51E4C701B60161
:101310000E94D00C18161CF0F1E0F093E6018091C9
:10132000E601882309F44EC020E030E040EF51E4AC
:10133000C701B6010E94BD0D87FD44C00E94BE02D8
:10134000C090E201D090E301E090E401F090E5016B
:101350006C197D098E099F096032734081059105E2
:1013600088F18091E0019091E10101969093E10173
:101370008093E0011092E6010E94BE026093E201B8
:101380007093E3018093E4019093E50148E750E016
:1013900060E070E080EB94E00E94200168E871E07A
:1013A00082E192E00E94EC056091E0017091E10120
:1013B00082E192E00E949F056FE171E082E192E09C
:1013C0000E9444050E94BE02C090EB01D090EC0147
:1013D000E090ED01F090EE016C197D098E099F09F6
:1013E0006C3271408105910508F4A0C00E94BE02D4
:1013F0006093EB017093EC018093ED019093EE010B
:10140000C090EF01D090F001E090F101F090F20176
:1014100020E030EC49E754E4C701B6010E94BD0D5D
:10142000C7EED3E018162CF0C701B6010E94D50C08
:10143000EB0180E00E94200566E971E08FEA92E00E
:101440000E94EC058091F3019091F401843691059E
:1014500034F46AE671E08FEA92E00E94EC05809134
:10146000F3019091F4010A9734F46AE671E08FEA8F
:1014700092E00E94EC056091F3017091F4018FEA13
:1014800092E00E949F056BE971E08FEA92E00E9472
:10149000EC056EE971E08FEA92E00E94EC05809124
:1014A000E0019091E1018436910534F466E871E041
:1014B0008FEA92E00E94EC058091E0019091E101B9
:1014C0000A9734F466E871E08FEA92E00E94EC0536
:1014D0006091E0017091E1018FEA92E00E949F0526
:1014E00081E00E94200561EA71E08FEA92E00E94AB
:1014F000EC05C436D1057CF46AE671E08FEA92E02F
:101500000E94EC05CA30D10534F46AE671E08FEA36
:1015100092E00E94EC05BE018FEA92E00E949F05D6
:1015200067EA71E08FEA92E00E94EC050E94BE0239
:10153000C090E701D090E801E090E901F090EA0165
:101540006C197D098E099F09643F714081059105E1
:1015500008F417CE0E94BE026093E7017093E80181
:101560008093E9019093EA016FEA71E082E192E0F1
:101570000E94EC056091F3017091F40182E192E028
:101580000E949F0564EB71E082E192E00E94EC050D
:101590006091F5017091F60182E192E00E949F0551
:1015A0006AEB71E082E192E00E94EC05C090EF01ED
:1015B000D090F001E090F101F090F201A7019601C6
:1015C000C701B6010E942F0E61EC71E081111BC0B2
:1015D00016012701E89457F82FEF3FEF4FE75FE739
:1015E000C201B1010E942F0E811194C02FEF3FEF75
:1015F0004FE75FE7C201B1010E94D00C18160CF052
:1016000089C065EC71E082E192E00E9444056DECD6
:1016100071E082E192E00E94EC056091E00170913E
:10162000E10182E192E00E949F0585ED91E00E9438
:10163000D905A7CD61E08AE00E94B60060E08DE0A8
:101640000E94B60061E089E00E94E400CF3FD1052E
:1016500029F461E089E00E94B600E2CDE5E8F0E01F
:101660008491833021F148F48130B9F08230D1F097
:10167000C038D10574F760E0EDCF873011F18830C4
:1016800041F18430A9F780918000806280938000CE
:10169000D0928B00C0928A00C3CD84B5806884BD8F
:1016A000C7BCBECD84B5806284BDC8BCB9CD8091B5
:1016B0008000806880938000D0928900C09288006A
:1016C000AFCD8091B00080688093B000C092B3002D
:1016D000A7CD8091B00080628093B000C092B4002A
:1016E0009FCD833491052CF48FE00E94B60061E019
:1016F000A8CD8FE00E94B60061E080E10E94B600B4
:1017000061E0A3CDC12C80ECD82E89E7E82E84E4DB
:10171000F82EE7CD2FEF3FEF4FE75FE4C701B601AB
:101720000E94BD0D18161CF469EC71E06CCF2FEF10
:101730003FEF4FE75FECC701B6010E94D00C87FD79
:10174000F3CF20E030E0A901C701B6010E94D00C20
:1017500087FF09C06DE282E192E00E946A03F7FA16
:10176000F094F7F8F0942AE037ED43EA5BE3C70121
:10177000B6010E94640C1B012C010E94DC0C6B0161
:101780007C010E940B0D9B01AC01C201B1010E94C2
:10179000630C1B012C012AE0B701A60182E192E053
:1017A0000E9453056EE282E192E00E946A0320E00B
:1017B00030E040E251E4C201B1010E94C20D1B01C0
:1017C0002C010E94DC0C6B01F12CE12C2AE0B7010A
:1017D000A60182E192E00E945305C701B6010E9472
:1017E0000B0D9B01AC01C201B1010E94630C20E012
:1017F00030E040E251E40E94C20D0E94DC0CAB01DB
:1018000070E060E02AE082E192E00E945305FFCEA2
:10181000052E97FB1EF400940E941F0C57FD07D065
:101820000E94320C07FC03D04EF40C941F0C509510
:101830004095309521953F4F4F4F5F4F08959095BC
:101840008095709561957F4F8F4F9F4F08950E94AF
:10185000540CA59F900DB49F900DA49F800D911DD9
:1018600011240895A1E21A2EAA1BBB1BFD010DC075
:10187000AA1FBB1FEE1FFF1FA217B307E407F50740
:1018800020F0A21BB30BE40BF50B661F771F881F1C
:10189000991F1A9469F760957095809590959B01B2
:1018A000AC01BD01CF010895A29FB001B39FC0015B
:1018B000A39F700D811D1124911DB29F700D811D7C
:1018C0001124911D08955058BB27AA270E947B0C14
:1018D0000C94830D0E94750D38F00E947C0D20F051
:1018E00039F49F3F19F426F40C94720D0EF4E09530
:1018F000E7FB0C946C0DE92F0E94940D58F3BA1776
:10190000620773078407950720F079F4A6F50C9415
:10191000B60D0EF4E0950B2EBA2FA02D0B01B901D8
:1019200090010C01CA01A0011124FF27591B99F055
:10193000593F50F4503E68F11A16F040A22F232F61
:10194000342F4427585FF3CF469537952795A795B1
:10195000F0405395C9F77EF41F16BA0B620B730B58
:10196000840BBAF09150A1F0FF0FBB1F661F771FC9
:10197000881FC2F70EC0BA0F621F731F841F48F47E
:10198000879577956795B795F7959E3F08F0B0CF07
:101990009395880F08F09927EE0F979587950895EE
:1019A0000E94480D08F481E008950E94DC0C6894C0
:1019B000B1110C94B70D08950E949C0D88F09F57AB
:1019C00098F0B92F9927B751B0F0E1F0660F771F63
:1019D000881F991F1AF0BA95C9F714C0B13091F059
:1019E0000E94B60DB1E008950C94B60D672F782FC4
:1019F0008827B85F39F0B93FCCF38695779567951E
:101A0000B395D9F73EF490958095709561957F4F89
:101A10008F4F9F4F0895E89409C097FB3EF490952F
:101A20008095709561957F4F8F4F9F4F9923A9F0B7
:101A3000F92F96E9BB279395F69587957795679546
:101A4000B795F111F8CFFAF4BB0F11F460FF1BC08A
:101A50006F5F7F4F8F4F9F4F16C0882311F096E91D
:101A600011C0772321F09EE8872F762F05C06623CB
:101A700071F096E8862F70E060E02AF09A95660F84
:101A8000771F881FDAF7880F9695879597F908953D
:101A9000990F0008550FAA0BE0E8FEEF161617067F
:101AA000E807F907C0F012161306E407F50798F0E7
:101AB000621B730B840B950B39F40A2661F0232B00
:101AC000242B252B21F408950A2609F4A140A6957C
:101AD0008FEF811D811D089597F99F6780E870E061
:101AE00060E008959FEF80EC089500240A94161694
:101AF000170618060906089500240A9412161306FC
:101B0000140605060895092E0394000C11F4882389
:101B100052F0BB0F40F4BF2B11F460FF04C06F5FA5
:101B20007F4F8F4F9F4F089557FD9058440F551F7B
:101B300059F05F3F71F04795880F97FB991F61F04F
:101B40009F3F79F087950895121613061406551FC6
:101B5000F2CF4695F1DF08C0161617061806991F32
:101B6000F1CF86957105610508940895E894BB2727
:101B700066277727CB0197F908950E94480D08F44E
:101B80008FEF08950E94D50D0C94830D0E94750D62
:101B900038F00E947C0D20F0952311F00C946C0D10
:101BA0000C94720D11240C94B70D0E94940D70F3D7
:101BB000959FC1F3950F50E0551F629FF001729FF2
:101BC000BB27F00DB11D639FAA27F00DB11DAA1F01
:101BD000649F6627B00DA11D661F829F2227B00D4E
:101BE000A11D621F739FB00DA11D621F839FA00DD9
:101BF000611D221F749F3327A00D611D231F849F29
:101C0000600D211D822F762F6A2F11249F5750407F
:101C10009AF0F1F088234AF0EE0FFF1FBB1F661FFA
:101C2000771F881F91505040A9F79E3F510580F0C3
:101C30000C946C0D0C94B70D5F3FE4F3983ED4F315
:101C4000869577956795B795F795E7959F5FC1F767
:101C5000FE2B880F911D9695879597F908950E9400
:101C6000480D880B990B08950E94540CB7FF0895F6
:101C7000821B930B0895EE0FFF1F0590F491E02D4A
:101C80000994F894FFCFFF000000006A03CA02F72E
:101C900002B703280306031A03000000002E05CA3A
:101CA00002D803D7030D0A0043696E7461204172A4
:101CB0006475696E6F0053697374656D61206C693A
:101CC00073746F0053495354454D415F4C4953540D
:101CD0004F005041524F20454D455247454E4349D4
:101CE00041004D4F544F524553204F46462020202F
:101CF000200053544154453D454D455247454E43C0
:101D0000593B56454C3D303B50574D3D30004341CB
:101D10004A415F434F4E544144413D0056656C3A41
:101D200000252000433A00446973743A00636D2033
:101D300052554E200056454C3D003B50574D3D00FE
:101D40003B444953543D006E616E00696E66006FFE
:101D50007666003B434F554E543D003B535441542F
:061D6000453D52554E0006
:107E0000112484B714BE81FFF0D085E080938100F7
:107E100082E08093C00088E18093C10086E0809377
:107E2000C20080E18093C4008EE0C9D0259A86E02C
:107E300020E33CEF91E0309385002093840096BBD3
:107E4000B09BFECF1D9AA8958150A9F7CC24DD24C4
:107E500088248394B5E0AB2EA1E19A2EF3E0BF2EE7
:107E6000A2D0813461F49FD0082FAFD0023811F036
:107E7000013811F484E001C083E08DD089C08234E0
:107E800011F484E103C0853419F485E0A6D080C0E4
:107E9000853579F488D0E82EFF2485D0082F10E0AE
:107EA000102F00270E291F29000F111F8ED06801E7
:107EB0006FC0863521F484E090D080E0DECF843638
:107EC00009F040C070D06FD0082F6DD080E0C81688
:107ED00080E7D80618F4F601B7BEE895C0E0D1E017
:107EE00062D089930C17E1F7F0E0CF16F0E7DF06D8
:107EF00018F0F601B7BEE89568D007B600FCFDCFD4
:107F0000A601A0E0B1E02C9130E011968C91119780
:107F100090E0982F8827822B932B1296FA010C0160
:107F200087BEE89511244E5F5F4FF1E0A038BF0790
:107F300051F7F601A7BEE89507B600FCFDCF97BE46
:107F4000E89526C08437B1F42ED02DD0F82E2BD052
:107F50003CD0F601EF2C8F010F5F1F4F84911BD097
:107F6000EA94F801C1F70894C11CD11CFA94CF0C13
:107F7000D11C0EC0853739F428D08EE10CD085E9AC
:107F80000AD08FE07ACF813511F488E018D01DD067
:107F900080E101D065CF982F8091C00085FFFCCF94
:107FA0009093C60008958091C00087FFFCCF809118
:107FB000C00084FD01C0A8958091C6000895E0E648
:107FC000F0E098E1908380830895EDDF803219F02E
:107FD00088E0F5DFFFCF84E1DECF1F93182FE3DFCA
:107FE0001150E9F7F2DF1F91089580E0E8DFEE27F6
:047FF000FF270994CA
:027FFE00040479
:00000001FF
